:100000000C9434000C943E000C943E000C943E0082
:100010000C943E000C943E000C943E000C943E0068
:100020000C943E000C943E000C943E000C943E0058
:100030000C943E000C943E000C943E000C943E0048
:100040000C943E000C943E000C943E000C943E0038
:100050000C943E000C943E000C943E000C943E0028
:100060000C943E000C943E0011241FBECFEFD8E04C
:10007000DEBFCDBF0E9440000C945A000C940000DB
:10008000209A5098589A5198599A489905C0499978
:1000900003C0289A489BFBCF489902C0499908C0E1
:1000A000489B02C0499B04C0489BEFCF499BEDCFC2
:0800B0002898EBCFF894FFCF74
:00000001FF
